{
  "contractName": "CreditCardFraudDetection",
  "abi": [
    {
      "inputs": [],
      "stateMutability": "nonpayable",
      "type": "constructor"
    },
    {
      "inputs": [
        {
          "internalType": "address",
          "name": "",
          "type": "address"
        }
      ],
      "name": "addressToCard",
      "outputs": [
        {
          "internalType": "string",
          "name": "",
          "type": "string"
        }
      ],
      "stateMutability": "view",
      "type": "function",
      "constant": true
    },
    {
      "inputs": [],
      "name": "admin",
      "outputs": [
        {
          "internalType": "address",
          "name": "",
          "type": "address"
        }
      ],
      "stateMutability": "view",
      "type": "function",
      "constant": true
    },
    {
      "inputs": [
        {
          "internalType": "uint256",
          "name": "",
          "type": "uint256"
        }
      ],
      "name": "cardTransactions",
      "outputs": [
        {
          "internalType": "uint256",
          "name": "id",
          "type": "uint256"
        },
        {
          "internalType": "string",
          "name": "card",
          "type": "string"
        },
        {
          "internalType": "string",
          "name": "trans_date_time",
          "type": "string"
        },
        {
          "internalType": "string",
          "name": "category",
          "type": "string"
        },
        {
          "internalType": "string",
          "name": "amt",
          "type": "string"
        },
        {
          "internalType": "string",
          "name": "merch_lat",
          "type": "string"
        },
        {
          "internalType": "string",
          "name": "merch_long",
          "type": "string"
        },
        {
          "internalType": "string",
          "name": "result",
          "type": "string"
        }
      ],
      "stateMutability": "view",
      "type": "function",
      "constant": true
    },
    {
      "inputs": [
        {
          "internalType": "string",
          "name": "",
          "type": "string"
        }
      ],
      "name": "cards",
      "outputs": [
        {
          "internalType": "address",
          "name": "cardOwner",
          "type": "address"
        },
        {
          "internalType": "string",
          "name": "card",
          "type": "string"
        },
        {
          "internalType": "string",
          "name": "gender",
          "type": "string"
        },
        {
          "internalType": "string",
          "name": "city",
          "type": "string"
        },
        {
          "internalType": "string",
          "name": "state",
          "type": "string"
        },
        {
          "internalType": "string",
          "name": "lat",
          "type": "string"
        },
        {
          "internalType": "string",
          "name": "long",
          "type": "string"
        },
        {
          "internalType": "string",
          "name": "city_pop",
          "type": "string"
        },
        {
          "internalType": "string",
          "name": "job",
          "type": "string"
        }
      ],
      "stateMutability": "view",
      "type": "function",
      "constant": true
    },
    {
      "inputs": [
        {
          "internalType": "address",
          "name": "userAddress",
          "type": "address"
        }
      ],
      "name": "getCard",
      "outputs": [
        {
          "components": [
            {
              "internalType": "address",
              "name": "cardOwner",
              "type": "address"
            },
            {
              "internalType": "string",
              "name": "card",
              "type": "string"
            },
            {
              "internalType": "string",
              "name": "gender",
              "type": "string"
            },
            {
              "internalType": "string",
              "name": "city",
              "type": "string"
            },
            {
              "internalType": "string",
              "name": "state",
              "type": "string"
            },
            {
              "internalType": "string",
              "name": "lat",
              "type": "string"
            },
            {
              "internalType": "string",
              "name": "long",
              "type": "string"
            },
            {
              "internalType": "string",
              "name": "city_pop",
              "type": "string"
            },
            {
              "internalType": "string",
              "name": "job",
              "type": "string"
            }
          ],
          "internalType": "struct CreditCardFraudDetection.Card",
          "name": "",
          "type": "tuple"
        }
      ],
      "stateMutability": "view",
      "type": "function",
      "constant": true
    },
    {
      "inputs": [
        {
          "internalType": "string",
          "name": "card",
          "type": "string"
        },
        {
          "internalType": "string",
          "name": "gender",
          "type": "string"
        },
        {
          "internalType": "string",
          "name": "city",
          "type": "string"
        },
        {
          "internalType": "string",
          "name": "state",
          "type": "string"
        },
        {
          "internalType": "string",
          "name": "lat",
          "type": "string"
        },
        {
          "internalType": "string",
          "name": "long",
          "type": "string"
        },
        {
          "internalType": "string",
          "name": "city_pop",
          "type": "string"
        },
        {
          "internalType": "string",
          "name": "job",
          "type": "string"
        }
      ],
      "name": "addCard",
      "outputs": [],
      "stateMutability": "nonpayable",
      "type": "function"
    },
    {
      "inputs": [
        {
          "internalType": "string",
          "name": "card",
          "type": "string"
        },
        {
          "internalType": "string",
          "name": "trans_date_time",
          "type": "string"
        },
        {
          "internalType": "string",
          "name": "category",
          "type": "string"
        },
        {
          "internalType": "string",
          "name": "amt",
          "type": "string"
        },
        {
          "internalType": "string",
          "name": "merch_lat",
          "type": "string"
        },
        {
          "internalType": "string",
          "name": "merch_long",
          "type": "string"
        },
        {
          "internalType": "string",
          "name": "result",
          "type": "string"
        }
      ],
      "name": "addCardTransaction",
      "outputs": [],
      "stateMutability": "nonpayable",
      "type": "function"
    },
    {
      "inputs": [
        {
          "internalType": "string",
          "name": "a",
          "type": "string"
        },
        {
          "internalType": "string",
          "name": "b",
          "type": "string"
        }
      ],
      "name": "compareStrings",
      "outputs": [
        {
          "internalType": "bool",
          "name": "",
          "type": "bool"
        }
      ],
      "stateMutability": "view",
      "type": "function",
      "constant": true
    },
    {
      "inputs": [
        {
          "internalType": "string",
          "name": "card",
          "type": "string"
        }
      ],
      "name": "getCardTransactions",
      "outputs": [
        {
          "components": [
            {
              "internalType": "uint256",
              "name": "id",
              "type": "uint256"
            },
            {
              "internalType": "string",
              "name": "card",
              "type": "string"
            },
            {
              "internalType": "string",
              "name": "trans_date_time",
              "type": "string"
            },
            {
              "internalType": "string",
              "name": "category",
              "type": "string"
            },
            {
              "internalType": "string",
              "name": "amt",
              "type": "string"
            },
            {
              "internalType": "string",
              "name": "merch_lat",
              "type": "string"
            },
            {
              "internalType": "string",
              "name": "merch_long",
              "type": "string"
            },
            {
              "internalType": "string",
              "name": "result",
              "type": "string"
            }
          ],
          "internalType": "struct CreditCardFraudDetection.CardTransaction[]",
          "name": "",
          "type": "tuple[]"
        }
      ],
      "stateMutability": "view",
      "type": "function",
      "constant": true
    }
  ],
  "bytecode": "0x6080604052600080546001600160a01b03191673df11b0990eeb8c7529e2b656b69f9affae4b793e17905534801561003657600080fd5b5060006003556123368061004b6000396000f3fe608060405234801561001057600080fd5b50600436106100935760003560e01c8063bed34bba11610066578063bed34bba14610125578063ceafb18d14610159578063e560fbe914610179578063ebcf29611461018c578063f851a440146101ac57600080fd5b80633007bf05146100985780634577c6d0146100c15780634dac95a8146100d657806379c2e367146100fe575b600080fd5b6100ab6100a6366004611a93565b6101d7565b6040516100b89190611b2c565b60405180910390f35b6100d46100cf366004611c45565b6107fe565b005b6100e96100e4366004611a93565b61096f565b6040516100b899989796959493929190611d85565b61011161010c366004611e47565b610e0b565b6040516100b8989796959493929190611e60565b610149610133366004611f01565b8051602091820120825192909101919091201490565b60405190151581526020016100b8565b61016c610167366004611f65565b611204565b6040516100b89190611f95565b6100d46101873660046120a4565b611745565b61019f61019a366004611f65565b6118bd565b6040516100b891906121bf565b6000546101bf906001600160a01b031681565b6040516001600160a01b0390911681526020016100b8565b60606000805b6003548110156102c2576000818152600460205260409020600101805461029d918691610209906121d2565b80601f0160208091040260200160405190810160405280929190818152602001828054610235906121d2565b80156102825780601f1061025757610100808354040283529160200191610282565b820191906000526020600020905b81548152906001019060200180831161026557829003601f168201915b50505050508051602091820120825192909101919091201490565b156102b057816102ac8161220c565b9250505b806102ba8161220c565b9150506101dd565b5060008167ffffffffffffffff8111156102de576102de6119f0565b60405190808252806020026020018201604052801561035757816020015b61034460405180610100016040528060008152602001606081526020016060815260200160608152602001606081526020016060815260200160608152602001606081525090565b8152602001906001900390816102fc5790505b5090506000805b6003548110156107f4576000818152600460205260409020600101805461038a918891610209906121d2565b156107e2576004600082815260200190815260200160002060405180610100016040529081600082015481526020016001820180546103c8906121d2565b80601f01602080910402602001604051908101604052809291908181526020018280546103f4906121d2565b80156104415780601f1061041657610100808354040283529160200191610441565b820191906000526020600020905b81548152906001019060200180831161042457829003601f168201915b5050505050815260200160028201805461045a906121d2565b80601f0160208091040260200160405190810160405280929190818152602001828054610486906121d2565b80156104d35780601f106104a8576101008083540402835291602001916104d3565b820191906000526020600020905b8154815290600101906020018083116104b657829003601f168201915b505050505081526020016003820180546104ec906121d2565b80601f0160208091040260200160405190810160405280929190818152602001828054610518906121d2565b80156105655780601f1061053a57610100808354040283529160200191610565565b820191906000526020600020905b81548152906001019060200180831161054857829003601f168201915b5050505050815260200160048201805461057e906121d2565b80601f01602080910402602001604051908101604052809291908181526020018280546105aa906121d2565b80156105f75780601f106105cc576101008083540402835291602001916105f7565b820191906000526020600020905b8154815290600101906020018083116105da57829003601f168201915b50505050508152602001600582018054610610906121d2565b80601f016020809104026020016040519081016040528092919081815260200182805461063c906121d2565b80156106895780601f1061065e57610100808354040283529160200191610689565b820191906000526020600020905b81548152906001019060200180831161066c57829003601f168201915b505050505081526020016006820180546106a2906121d2565b80601f01602080910402602001604051908101604052809291908181526020018280546106ce906121d2565b801561071b5780601f106106f05761010080835404028352916020019161071b565b820191906000526020600020905b8154815290600101906020018083116106fe57829003601f168201915b50505050508152602001600782018054610734906121d2565b80601f0160208091040260200160405190810160405280929190818152602001828054610760906121d2565b80156107ad5780601f10610782576101008083540402835291602001916107ad565b820191906000526020600020905b81548152906001019060200180831161079057829003601f168201915b5050505050815250508383815181106107c8576107c8612233565b602002602001018190525081806107de9061220c565b9250505b806107ec8161220c565b91505061035e565b5090949350505050565b604051806101200160405280336001600160a01b03168152602001898152602001888152602001878152602001868152602001858152602001848152602001838152602001828152506002896040516108579190612249565b90815260405160209181900382019020825181546001600160a01b0319166001600160a01b03909116178155828201518051919261089d92600185019290910190611957565b50604082015180516108b9916002840191602090910190611957565b50606082015180516108d5916003840191602090910190611957565b50608082015180516108f1916004840191602090910190611957565b5060a0820151805161090d916005840191602090910190611957565b5060c08201518051610929916006840191602090910190611957565b5060e08201518051610945916007840191602090910190611957565b506101008201518051610962916008840191602090910190611957565b5050505050505050505050565b8051602081830181018051600282529282019190930120915280546001820180546001600160a01b0390921692916109a6906121d2565b80601f01602080910402602001604051908101604052809291908181526020018280546109d2906121d2565b8015610a1f5780601f106109f457610100808354040283529160200191610a1f565b820191906000526020600020905b815481529060010190602001808311610a0257829003601f168201915b505050505090806002018054610a34906121d2565b80601f0160208091040260200160405190810160405280929190818152602001828054610a60906121d2565b8015610aad5780601f10610a8257610100808354040283529160200191610aad565b820191906000526020600020905b815481529060010190602001808311610a9057829003601f168201915b505050505090806003018054610ac2906121d2565b80601f0160208091040260200160405190810160405280929190818152602001828054610aee906121d2565b8015610b3b5780601f10610b1057610100808354040283529160200191610b3b565b820191906000526020600020905b815481529060010190602001808311610b1e57829003601f168201915b505050505090806004018054610b50906121d2565b80601f0160208091040260200160405190810160405280929190818152602001828054610b7c906121d2565b8015610bc95780601f10610b9e57610100808354040283529160200191610bc9565b820191906000526020600020905b815481529060010190602001808311610bac57829003601f168201915b505050505090806005018054610bde906121d2565b80601f0160208091040260200160405190810160405280929190818152602001828054610c0a906121d2565b8015610c575780601f10610c2c57610100808354040283529160200191610c57565b820191906000526020600020905b815481529060010190602001808311610c3a57829003601f168201915b505050505090806006018054610c6c906121d2565b80601f0160208091040260200160405190810160405280929190818152602001828054610c98906121d2565b8015610ce55780601f10610cba57610100808354040283529160200191610ce5565b820191906000526020600020905b815481529060010190602001808311610cc857829003601f168201915b505050505090806007018054610cfa906121d2565b80601f0160208091040260200160405190810160405280929190818152602001828054610d26906121d2565b8015610d735780601f10610d4857610100808354040283529160200191610d73565b820191906000526020600020905b815481529060010190602001808311610d5657829003601f168201915b505050505090806008018054610d88906121d2565b80601f0160208091040260200160405190810160405280929190818152602001828054610db4906121d2565b8015610e015780601f10610dd657610100808354040283529160200191610e01565b820191906000526020600020905b815481529060010190602001808311610de457829003601f168201915b5050505050905089565b60046020526000908152604090208054600182018054919291610e2d906121d2565b80601f0160208091040260200160405190810160405280929190818152602001828054610e59906121d2565b8015610ea65780601f10610e7b57610100808354040283529160200191610ea6565b820191906000526020600020905b815481529060010190602001808311610e8957829003601f168201915b505050505090806002018054610ebb906121d2565b80601f0160208091040260200160405190810160405280929190818152602001828054610ee7906121d2565b8015610f345780601f10610f0957610100808354040283529160200191610f34565b820191906000526020600020905b815481529060010190602001808311610f1757829003601f168201915b505050505090806003018054610f49906121d2565b80601f0160208091040260200160405190810160405280929190818152602001828054610f75906121d2565b8015610fc25780601f10610f9757610100808354040283529160200191610fc2565b820191906000526020600020905b815481529060010190602001808311610fa557829003601f168201915b505050505090806004018054610fd7906121d2565b80601f0160208091040260200160405190810160405280929190818152602001828054611003906121d2565b80156110505780601f1061102557610100808354040283529160200191611050565b820191906000526020600020905b81548152906001019060200180831161103357829003601f168201915b505050505090806005018054611065906121d2565b80601f0160208091040260200160405190810160405280929190818152602001828054611091906121d2565b80156110de5780601f106110b3576101008083540402835291602001916110de565b820191906000526020600020905b8154815290600101906020018083116110c157829003601f168201915b5050505050908060060180546110f3906121d2565b80601f016020809104026020016040519081016040528092919081815260200182805461111f906121d2565b801561116c5780601f106111415761010080835404028352916020019161116c565b820191906000526020600020905b81548152906001019060200180831161114f57829003601f168201915b505050505090806007018054611181906121d2565b80601f01602080910402602001604051908101604052809291908181526020018280546111ad906121d2565b80156111fa5780601f106111cf576101008083540402835291602001916111fa565b820191906000526020600020905b8154815290600101906020018083116111dd57829003601f168201915b5050505050905088565b61125c60405180610120016040528060006001600160a01b0316815260200160608152602001606081526020016060815260200160608152602001606081526020016060815260200160608152602001606081525090565b6001600160a01b03821660009081526001602052604090819020905160029161128491612265565b908152604080519182900360209081018320610120840190925281546001600160a01b03168352600182018054918401916112be906121d2565b80601f01602080910402602001604051908101604052809291908181526020018280546112ea906121d2565b80156113375780601f1061130c57610100808354040283529160200191611337565b820191906000526020600020905b81548152906001019060200180831161131a57829003601f168201915b50505050508152602001600282018054611350906121d2565b80601f016020809104026020016040519081016040528092919081815260200182805461137c906121d2565b80156113c95780601f1061139e576101008083540402835291602001916113c9565b820191906000526020600020905b8154815290600101906020018083116113ac57829003601f168201915b505050505081526020016003820180546113e2906121d2565b80601f016020809104026020016040519081016040528092919081815260200182805461140e906121d2565b801561145b5780601f106114305761010080835404028352916020019161145b565b820191906000526020600020905b81548152906001019060200180831161143e57829003601f168201915b50505050508152602001600482018054611474906121d2565b80601f01602080910402602001604051908101604052809291908181526020018280546114a0906121d2565b80156114ed5780601f106114c2576101008083540402835291602001916114ed565b820191906000526020600020905b8154815290600101906020018083116114d057829003601f168201915b50505050508152602001600582018054611506906121d2565b80601f0160208091040260200160405190810160405280929190818152602001828054611532906121d2565b801561157f5780601f106115545761010080835404028352916020019161157f565b820191906000526020600020905b81548152906001019060200180831161156257829003601f168201915b50505050508152602001600682018054611598906121d2565b80601f01602080910402602001604051908101604052809291908181526020018280546115c4906121d2565b80156116115780601f106115e657610100808354040283529160200191611611565b820191906000526020600020905b8154815290600101906020018083116115f457829003601f168201915b5050505050815260200160078201805461162a906121d2565b80601f0160208091040260200160405190810160405280929190818152602001828054611656906121d2565b80156116a35780601f10611678576101008083540402835291602001916116a3565b820191906000526020600020905b81548152906001019060200180831161168657829003601f168201915b505050505081526020016008820180546116bc906121d2565b80601f01602080910402602001604051908101604052809291908181526020018280546116e8906121d2565b80156117355780601f1061170a57610100808354040283529160200191611735565b820191906000526020600020905b81548152906001019060200180831161171857829003601f168201915b5050505050815250509050919050565b6000546001600160a01b031633146117975760405162461bcd60e51b81526020600482015260116024820152704f6e6c792061646d696e2061636365737360781b604482015260640160405180910390fd5b60038054600091826117a88361220c565b90915550604080516101008101825282815260208082018c81528284018c9052606083018b9052608083018a905260a0830189905260c0830188905260e0830187905260008581526004835293909320825181559251805194955091936118159260018501920190611957565b5060408201518051611831916002840191602090910190611957565b506060820151805161184d916003840191602090910190611957565b5060808201518051611869916004840191602090910190611957565b5060a08201518051611885916005840191602090910190611957565b5060c082015180516118a1916006840191602090910190611957565b5060e08201518051610962916007840191602090910190611957565b600160205260009081526040902080546118d6906121d2565b80601f0160208091040260200160405190810160405280929190818152602001828054611902906121d2565b801561194f5780601f106119245761010080835404028352916020019161194f565b820191906000526020600020905b81548152906001019060200180831161193257829003601f168201915b505050505081565b828054611963906121d2565b90600052602060002090601f01602090048101928261198557600085556119cb565b82601f1061199e57805160ff19168380011785556119cb565b828001600101855582156119cb579182015b828111156119cb5782518255916020019190600101906119b0565b506119d79291506119db565b5090565b5b808211156119d757600081556001016119dc565b634e487b7160e01b600052604160045260246000fd5b600082601f830112611a1757600080fd5b813567ffffffffffffffff80821115611a3257611a326119f0565b604051601f8301601f19908116603f01168101908282118183101715611a5a57611a5a6119f0565b81604052838152866020858801011115611a7357600080fd5b836020870160208301376000602085830101528094505050505092915050565b600060208284031215611aa557600080fd5b813567ffffffffffffffff811115611abc57600080fd5b611ac884828501611a06565b949350505050565b60005b83811015611aeb578181015183820152602001611ad3565b83811115611afa576000848401525b50505050565b60008151808452611b18816020860160208601611ad0565b601f01601f19169290920160200192915050565b60006020808301818452808551808352604092508286019150828160051b87010184880160005b83811015611c3757603f1989840301855281516101008151855288820151818a870152611b8282870182611b00565b9150508782015185820389870152611b9a8282611b00565b91505060608083015186830382880152611bb48382611b00565b9250505060808083015186830382880152611bcf8382611b00565b9250505060a08083015186830382880152611bea8382611b00565b9250505060c08083015186830382880152611c058382611b00565b9250505060e08083015192508582038187015250611c238183611b00565b968901969450505090860190600101611b53565b509098975050505050505050565b600080600080600080600080610100898b031215611c6257600080fd5b883567ffffffffffffffff80821115611c7a57600080fd5b611c868c838d01611a06565b995060208b0135915080821115611c9c57600080fd5b611ca88c838d01611a06565b985060408b0135915080821115611cbe57600080fd5b611cca8c838d01611a06565b975060608b0135915080821115611ce057600080fd5b611cec8c838d01611a06565b965060808b0135915080821115611d0257600080fd5b611d0e8c838d01611a06565b955060a08b0135915080821115611d2457600080fd5b611d308c838d01611a06565b945060c08b0135915080821115611d4657600080fd5b611d528c838d01611a06565b935060e08b0135915080821115611d6857600080fd5b50611d758b828c01611a06565b9150509295985092959890939650565b6001600160a01b038a16815261012060208201819052600090611daa8382018c611b00565b90508281036040840152611dbe818b611b00565b90508281036060840152611dd2818a611b00565b90508281036080840152611de68189611b00565b905082810360a0840152611dfa8188611b00565b905082810360c0840152611e0e8187611b00565b905082810360e0840152611e228186611b00565b9050828103610100840152611e378185611b00565b9c9b505050505050505050505050565b600060208284031215611e5957600080fd5b5035919050565b60006101008a8352806020840152611e7a8184018b611b00565b90508281036040840152611e8e818a611b00565b90508281036060840152611ea28189611b00565b90508281036080840152611eb68188611b00565b905082810360a0840152611eca8187611b00565b905082810360c0840152611ede8186611b00565b905082810360e0840152611ef28185611b00565b9b9a5050505050505050505050565b60008060408385031215611f1457600080fd5b823567ffffffffffffffff80821115611f2c57600080fd5b611f3886838701611a06565b93506020850135915080821115611f4e57600080fd5b50611f5b85828601611a06565b9150509250929050565b600060208284031215611f7757600080fd5b81356001600160a01b0381168114611f8e57600080fd5b9392505050565b60208152611faf6020820183516001600160a01b03169052565b60006020830151610120806040850152611fcd610140850183611b00565b91506040850151601f1980868503016060870152611feb8483611b00565b935060608701519150808685030160808701526120088483611b00565b935060808701519150808685030160a08701526120258483611b00565b935060a08701519150808685030160c08701526120428483611b00565b935060c08701519150808685030160e087015261205f8483611b00565b935060e0870151915061010081878603018188015261207e8584611b00565b90880151878203909201848801529350905061209a8382611b00565b9695505050505050565b600080600080600080600060e0888a0312156120bf57600080fd5b873567ffffffffffffffff808211156120d757600080fd5b6120e38b838c01611a06565b985060208a01359150808211156120f957600080fd5b6121058b838c01611a06565b975060408a013591508082111561211b57600080fd5b6121278b838c01611a06565b965060608a013591508082111561213d57600080fd5b6121498b838c01611a06565b955060808a013591508082111561215f57600080fd5b61216b8b838c01611a06565b945060a08a013591508082111561218157600080fd5b61218d8b838c01611a06565b935060c08a01359150808211156121a357600080fd5b506121b08a828b01611a06565b91505092959891949750929550565b602081526000611f8e6020830184611b00565b600181811c908216806121e657607f821691505b60208210810361220657634e487b7160e01b600052602260045260246000fd5b50919050565b60006001820161222c57634e487b7160e01b600052601160045260246000fd5b5060010190565b634e487b7160e01b600052603260045260246000fd5b6000825161225b818460208701611ad0565b9190910192915050565b600080835481600182811c91508083168061228157607f831692505b602080841082036122a057634e487b7160e01b86526022600452602486fd5b8180156122b457600181146122c5576122f2565b60ff198616895284890196506122f2565b60008a81526020902060005b868110156122ea5781548b8201529085019083016122d1565b505084890196505b50949897505050505050505056fea264697066735822122039567a1c6936ac32b86f70febcc7cd6e4d193605491ccbcded755dc54295b1e764736f6c634300080d0033",
  "immutableReferences": {},
  "source": "// SPDX-License-Identifier: MIT\npragma solidity >=0.4.22 <0.9.0;\n\ncontract CreditCardFraudDetection {\n  address public admin = 0xdf11b0990Eeb8C7529E2B656b69f9aFFAE4B793e;\n\n  struct Card {\n    address cardOwner;\n    string card;\n    string gender;\n    string city;\n    string state;\n    string lat;\n    string long;\n    string city_pop;\n    string job;\n  }\n\n  struct CardTransaction {\n    uint256 id;\n    string card;\n    string trans_date_time;\n    string category;\n    string amt;\n    string merch_lat;\n    string merch_long;\n    string result;\n  }\n  mapping(address => string) public addressToCard;\n  mapping(string => Card) public cards;\n  \n  uint256 cardTransactionId;\n  mapping(uint256 => CardTransaction) public cardTransactions;\n\n  constructor() {\n    cardTransactionId = 0;\n  }\n\n  function getCard(address userAddress) public view returns (Card memory) {\n    return cards[addressToCard[userAddress]];\n  }\n\n  function addCard(\n    string memory card,\n    string memory gender,\n    string memory city,\n    string memory state,\n    string memory lat,\n    string memory long,\n    string memory city_pop,\n    string memory job\n  ) public {\n    cards[card] = Card(\n      msg.sender,\n      card,\n      gender,\n      city,\n      state,\n      lat,\n      long,\n      city_pop,\n      job\n    );\n  }\n\n  function isAdmin(address adminAddress) private view returns (bool) {\n    return adminAddress == admin;\n  }\n\n  function addCardTransaction(\n    string memory card,\n    string memory trans_date_time,\n    string memory category,\n    string memory amt,\n    string memory merch_lat,\n    string memory merch_long,\n    string memory result\n  ) public {\n    require(isAdmin(msg.sender), \"Only admin access\");\n    uint256 transactionId = cardTransactionId++;\n    cardTransactions[transactionId] = CardTransaction(\n      transactionId,\n      card,\n      trans_date_time,\n      category,\n      amt,\n      merch_lat,\n      merch_long,\n      result\n    );\n  }\n\n  function compareStrings(string memory a, string memory b) public view returns (bool) {\n    return (keccak256(bytes((a))) == keccak256(bytes((b))));\n  }\n\n  function getCardTransactions(string memory card) public view returns (CardTransaction[] memory) {\n    uint256 cardTransactionCount = 0;\n    for(uint256 i = 0; i < cardTransactionId; i++){\n      if (compareStrings(card, cardTransactions[i].card))\n        cardTransactionCount++;\n    }\n\n    CardTransaction[] memory _cardTransactions = new CardTransaction[](cardTransactionCount);\n    uint256 j = 0;\n    for(uint256 i = 0; i < cardTransactionId; i++){\n      if (compareStrings(card, cardTransactions[i].card)) {\n        _cardTransactions[j] = cardTransactions[i];\n        j++;\n      }\n    }\n\n    return _cardTransactions;\n  }\n}\n",
  "sourcePath": "C:\\Users\\subra\\Videos\\CreditCardFraudDetection\\frontend\\truffle\\contracts\\CreditCardFraudDetection.sol",
  "compiler": {
    "name": "solc",
    "version": "0.8.13+commit.abaa5c0e.Emscripten.clang"
  },
  "schemaVersion": "3.4.16",
  "updatedAt": "2024-12-30T00:28:00.250Z",
  "networkType": "ethereum",
  "devdoc": {
    "kind": "dev",
    "methods": {},
    "version": 1
  },
  "userdoc": {
    "kind": "user",
    "methods": {},
    "version": 1
  }
}